S01100004E616E6F466F7838302E73726563F2
S11300000C9439020C9463020C9463020C94E30E76
S11300100C9463020C9463020C9463020C94646663
S11300200C9463020C9463020C9463020C946302B8
S11300300C945D130C9447490C9463020C94630272
S11300400C9463020C9463020C9463020C94740881
S11300500C94380B0C9463020C9418160C946302E1
S11300600C9447380C9463020C9463020C9463025E
S11300700C9463020C9463020C94BD660C94FD0B07
S11300800C94C50D0C9463020C9463020C946302EB
S11300900C9463020C9463020C9463020C94630248
S11300A00C946302632D772D8D2DA32DB92DFF2E76
S11300B0F42EF42D042E162E282E3A2E742E842E71
S11300C0962EA82EBA2EDD3FEA3F813FEA3FEA3F53
S11300D0EA3F8F3FEA3FEA3FEA3FD93EEA3FEA3F41
S11300E0EA3FEA3FEA3FEA3FEA3FEA3FEA3FEA3FC4
S11300F0EA3FEA3FEA3FEA3FEA3FEA3FEA3FEA3FB4
S1130100EA3FEA3F093FEA3FEA3FEA3FEA3FEA3F84
S1130110EA3FEA3FEA3FEA3FEA3FEA3FEA3FEA3F93
S1130120EA3FEA3FEA3FEA3FEA3FEA3FEA3F393F34
S1130130EA3FEA3FEA3FEA3FEA3FEA3FEA3FEA3F73
S11301406D3F773F9D3FB03EEA3FEA3FEA3FBE3E08
S1130150EA3FEA3FEA3FCC3EEA3FA73FB13FEA3FEE
S1130160BC3FEA3FC73FEA3FD23F934BA64BB04B5D
S1130170BA4BEA4BD24B024CDF4CF54CB04C7E4CA4
S11301804C4C1A4CAD4CBA544A549E54C854A554C1
S1130190C8546654435458545F54C8548254355414
S11301A090542E545154E953F053F753FE530554CD
S11301B00C5412541954205427546D547454C1547B
S11301C07B54C8543C54AC5437533E5345534C535E
S11301D053535953605367536D5373537A53815335
S11301E088538F5396539D53A453AB53B253B85370
S11301F0BF53C653CD53D453DB53E253C854C854EE
S1130200C854C8549754C854C854C854C854C8543B
S1130210C854C854C854C854C854C854C854C854FA
S1130220C854C854C854C854C854C854C854C854EA
S1130230C854C854C854C854C854C854C854B354EF
S1130240C85489546E6F796F846F8F6F9A6FA56FDE
S1130250B06FBB6FC66FD16FDC6FE76FF26FFD6F6E
S1130260087013701E7029704E414E494E495459FE
S1130270494E46CDCCCC3D0AD7233C17B7D138776D
S1130280CC2B329595E6241FB14F0A000020410083
S113029000C84200401C4620BCBE4CCA1B0E5AAECD
S11302A0C59D7400407A10F35A00A0724E180900DC
S11302B010A5D4E80000E87648170000E40B5402C7
S11302C00000CA9A3B000000E1F505000080969802
S11302D000000040420F000000A086010000001052
S11302E02700000000E80300000000640000000094
S11302F0000A00000000000100000000002C76D875
S113030088DC674F0823DFC1DFAE59E1B1B796E55A
S1130310E3E453C63AE651997696E8E6C28426EBBE
S1130320898C9B62ED407C6FFCEFBC9C9F40F2BAD1
S1130330A56FA5F490055A2AF75C936B6CF9676D69
S1130340C11BFCE0E40D47FEF520E6B500D0ED90BE
S11303502E0300943577050080841E080000204E8B
S11303600A000000C80C333333330F986E12831124
S113037041EF8D2114893BE65516CFFEE6DB18D1FB
S1130380844B381BF77C1D901DA4BBE424203284CD
S1130390725E228100C9F124ECA1E53D274A616E19
S11303A075617279204665627275617279204D615A
S11303B072636820417072696C204D6179204A75BE
S11303C06E65204A756C7920417567757374205386
S11303D0657074656D626572204F63746F626572D7
S11303E0204E6F76656D62657220446563656D624B
S11303F06572200053756E646179204D6F6E64617F
S1130400792054756573646179205765646E6573EA
S113041064617920546875727364617920467269E5
S11304206461792053617475726461792000537535
S11304306E4D6F6E54756557656454687546726980
S1130440536174004A616E4665624D617241707217
S11304504D61794A756E4A756C4175675365704F85
S113046063744E6F7644656300004436C338513676
S1130470D03811241FBECFEFCDBFDFE7DEBF16E4B7
S1130480A0E0B0E4E8E9F8EF00E00BBF02C0079099
S11304900D92A235B107D9F72AE4A2E5B6E401C06A
S11304A01D92A63BB207E1F712E0C7E3D2E004C015
S11304B02197FE010E944D73C533D107C9F70E94ED
S11304C0DA160C943F7C0C9400009C0123703327B3
S11304D0232B59F464E670E00E94F872892B39F4F6
S11304E06370772781E0672B19F080E0089581E03D
S11304F0089562EA7AE40E94800282EA9AE4089506
S1130500CF92DF92EF92FF920F931F93CF93DF93DB
S113051000D000D0CDB7DEB76C017B01E091B24AC8
S1130520F091B34A309729F06EEA7AE409958C0188
S113053002C00FEF1FEFF601408151816281738188
S11305408091AE4A9091AF4AA091B04AB091B14A1D
S1130550840F951FA61FB71F101611064CF4A8018F
S1130560012E000C660B770B840F951FA61FB71F77
S113057089839A83AB83BC83B701CE0101960E9421
S11305800807F701028713872496CDBFDEBFDF91EA
S1130590CF911F910F91FF90EF90DF90CF9008952E
S11305A0623021F40E946502845E0895683008F088
S11305B06F5F61708EE1860F08950FB6F8946093B3
S11305C09E4A70939F4A8093A04A9093A14A0FBE7B
S11305D00895CF92DF92EF920F936B01E82E7C2D5A
S11305E06D2D5E2DAE2DC6010196A11D442351F043
S11305F06C01EA2EE72FF62F0E942C7C603279F7EB
S11306004150EDCFF6010E942C7C6C01EA2E80E073
S1130610603239F4F90110820F91EF90DF90CF909E
S113062008958017B9F32F5F3F4FF9013197608325
S11306308F5FF6015E2D0E942C7C9FEFC91AD90AA8
S1130640E90AE6CF2F923F924F925F926F927F9288
S11306508F929F92AF92BF92CF92DF92EF92FF92CE
S11306600F931F93CF93DF93CDB7DEB7A297CDBF80
S1130670DEBF2C0169A37AA34A017901612C712C94
S11306809E012F5F3F4F690184E6282E312C90EFA5
S1130690A92E95E4B92E29A13AA16216730608F091
S11306A0CDC2D4018C91853209F0BCC211961C9143
S11306B0153431F01F3421F0B2E08B0E911C06C0CA
S11306C0F401128194012D5F3F4F4901193509F45A
S11306D032C20CF060C0193409F43FC144F513343C
S11306E009F4E7C054F4113409F4BEC00CF0CAC0D4
S11306F0153209F074C2198375C2163409F4EAC0BC
S113070064F4143409F06BC2F70186819781B10156
S11307100E94F8729F938F93E7C1173409F4F8C0CD
S1130720183409F05CC2D70112968C9130C114358B
S113073009F489C164F4123509F46EC10CF025C1C1
S11307401D3409F04CC2D70111968C9120C1163585
S113075009F4A5C10CF4A1C1173509F4B4C11835C5
S113076009F03DC2F7018081282F082E000C330BBD
S11307703F938F938181282F082E000C330B3F93D6
S11307808F938281282F082E000C330B3F938F9375
S113079088E396E4C0C11D3609F4F0C0ACF5143604
S11307A009F494C074F4123609F466C00CF075C0F0
S11307B0113609F014C203E09601D70114964C9146
S11307C057C0173609F4A4C074F4153609F007C2EB
S11307D0F7018381282F082E000C330B3F938F934E
S11307E085EF95E4C8C0183609F446C01A3609F0F6
S11307F0F6C1D70118968D919C91199701969F93F4
S11308008F938BE096E4B7C0153709F435C1B4F47F
S1130810103709F4C2C034F41E3609F0E0C18AE08E
S11308208983E0C1123709F4C6C0143709F0D7C16F
S113083061E276E4C6010E942875D4C1183709F430
S113084048C15CF4173709F0CAC1F7018481282F25
S1130850082E000C330B3F9374C1193709F45EC1A1
S11308601A3709F47EC1BBC10FEF9601F701448129
S113087064EF73E080E00DC003E09601D7011596A4
S11308804C9104C00FEF9601F70145816DE973E0C7
S113089080E00E94E90290E0A7C1B601C7010E946E
S11308A08506F601CF018C199D0921912111FACFFA
S11308B09BC1D70116968D919C9117978459984F97
S11308C0B1010E94F8727F936F933BC0D7011396D6
S11308D08C915DC0D70113968C911397282F082E05
S11308E0000C330B3F938F9315968C911597082E1C
S11308F0000C990B01969F938F9316968D919C9162
S113090017978459984F9F938F9389EF95E403C168
S1130910D70118966D917C91199716968D919C919B
S11309201797AE01455E5F4F8459984F0E94DE07CA
S1130930173651F48B8D9C8DB1010E94F8729F93F0
S11309408F93E1E0F6E4A6C08C8D8F938B8D8F930B
S113095046E056E45F934F93F9C0F70182816CE05F
S11309600E941E7C992321F0892F990F990BDEC0D8
S11309708CE090E0DBC09F938F93E8C0F701858102
S1130980082E000C990B0196D1C0D7018C91282F09
S1130990082E000C330B3F93CAC081E48983F7010E
S11309A082818C3014F080E589838DE48A831B82F4
S11309B082E090E019C1D70112968C916CE00E94FC
S11309C01E7C992321F0892F990F990B02C08CE08A
S11309D090E0F7012081422F022E000C550B5F930B
S11309E02F932181422F022E000C550B5F932F93DE
S11309F09F938F9320E136E43F932F93DF92CF921E
S1130A000E946475CDBFDEBFF70122812C300CF447
S1130A10EBC020E52B87E8C0D70111968C91119784
S1130A20282F082E000C330B3F938F9312968C9132
S1130A30282F082E000C330B3F938F9388E296E403
S1130A409F938F93C5C0F7018081282F082E000C37
S1130A50330B3F938F938181282F082E000C330B87
S1130A603F938F938281282F082E000C330B3F93E2
S1130A708F9383E296E44FC0D70114968C91082E8D
S1130A80000C990B009711F487E090E09F938F93EB
S1130A90E2E3F6E4FF93EF9359C060E015C0D70199
S1130AA018966D917C91199716968D919C91179734
S1130AB0AE01455E5F4F8459984F0E94DE078E8DCC
S1130AC08F938D8D34C061E0C7010E944A061F9246
S1130AD02EC0D70116968D919C911797B1010E9453
S1130AE0F8729F938F93F7018381282F082E000CAF
S1130AF0330B3F938F938581082E000C990B01963D
S1130B009F938F9326EE35E43F932F93DF92CF92FA
S1130B100E94647561C09F938F93F8CFD701169696
S1130B208D919C911797B1010E94F8729F938F93B6
S1130B30BF92AF920BC0F701868197818459984F79
S1130B409F938F9325E336E43F932F93DF92CF92C5
S1130B500E9464750F900F900F900F900F900F905C
S1130B6043C06091AE4A7091AF4A8091B04A90916F
S1130B70B14A2CE330E040E050E00E942E7389013A
S1130B809A01F801D7011A968D919C911B976CE3F9
S1130B9070E00E94F872161617061CF4FB01E00FB1
S1130BA0F11FCF016CE370E00E94F87297FF03C05D
S1130BB09195819591099F938F93CF016CE370E098
S1130BC00E94F8727F936F93E7E4F6E4FF93EF9348
S1130BD0DF92CF920E946475CDBFDEBF05C08FE364
S1130BE089831A8281E090E09301280F391FA9A11B
S1130BF0BAA12A173B0798F4D201F601AF014C19A8
S1130C005D09481759071CF441914D93F7CF97FF9D
S1130C1002C080E090E0480E591E39013CCDF2013B
S1130C2010820EC0D2018D932D01BFEF6B1A7B0A87
S1130C30882331F0EFEF8E1A9E0A2DCDD2011C923B
S1130C40C301A296CDBFDEBFDF91CF911F910F915B
S1130C50FF90EF90DF90CF90BF90AF909F908F90D8
S1130C607F906F905F904F903F902F900895FC017C
S1130C700FB6F89460919E4A70919F4A8091A04A61
S1130C809091A14A0FBE309721F0608371838283D3
S1130C9093830895FC0120853185C9010796448119
S1130CA0841B910947FD9395860F911DE7E0F0E0C1
S1130CB0BF010E94F872A901481B590BCA0157FDD4
S1130CC006C0BF010E94F87281E0860F089580E09B
S1130CD008958F938FB78F93F89480919E4A8F5F76
S1130CE080939E4A80919F4A8F4F80939F4A809120
S1130CF0A04A8F4F8093A04A8091A14A8F4F80933E
S1130D00A14A8F918FBF8F910895CF92DF92EF9276
S1130D10FF920F931F93CF93DF938C01EB01FC01A0
S1130D208481B82FBB0FB80F8581782F770F780F88
S1130D309E0140E08B2F840F90E0A0E0825D9B4FEA
S1130D40AF4FFC015A2F0E942C7CF90161939F0143
S1130D50872F840F90E0A0E08C5B9B4FAF4FFC018A
S1130D605A2F0E942C7CF90163834F5F433011F7A3
S1130D7080E28F838B83BE01685F7F4FF80183819C
S1130D8040E2082E000C990B0E945808BE01655FD2
S1130D907F4FF80182814AE3082E000C990B0E94D0
S1130DA05808BE01625F7F4FF80181814AE3082E33
S1130DB0000C990B0E945808BE016F5E7F4FF8012A
S1130DC0808140E2082E000C990B0E945808F8011B
S1130DD08681978164E670E08459984F0E94F87286
S1130DE06B017C01BE016C5E7F4F40E2C6010E9434
S1130DF05808BE016A5E7F4F40E0C701DF91CF9182
S1130E001F910F91FF90EF90DF90CF900C945808B2
S1130E10CF92DF92EF92FF920F931F93CF93DF93C2
S1130E20CDB7DEB72897CDBFDEBF8B01FC01608153
S1130E3071818281938120E831E541E050E00E9494
S1130E400C7369017A012CE330E040E050E00E9429
S1130E502E7329833A834B835C8389819A81AB8186
S1130E60BC81F80160836CE370E00E94F872DC01DD
S1130E70CB01F801A1838283C601069667E070E086
S1130E800E94E47284832DEA3EE840E050E0C7010A
S1130E90B6010E942E7329833A836D837E838F83E8
S1130EA0988789819A8124E6289F6001299FD00C24
S1130EB011246D817E818F81988525EB35E040E09A
S1130EC050E00E942E7329833A836D837E83E980E8
S1130ED0FA80EE0CFF1CEE0CFF1CEC0CFD1C8D814B
S1130EE09E81F5E6EF16F10410F0019604C024E6A5
S1130EF0E216F10419F021E030E002C020E030E015
S1130F00A90144595E4F4817590768F46DE671E02A
S1130F10821B930B0E94F872DC01CB01E80EF91ED0
S1130F20CD0120E030E044E6E40EF11CF801E68255
S1130F30F78280879187255C3F4F8217930748F497
S1130F406FE170E00E94F872DC01CB01F801858347
S1130F5022C069E970E0821B930B0E94F872DC01E5
S1130F60CB01F82EFF0CFF0CF80E6DE370E0CD0101
S1130F700E94F872DC01CB01E82EEE0C6FE170E008
S1130F80CD010E94F872DC01CB0122E0280FF20EA1
S1130F90FE0CF801F582A383F8011286138683817F
S1130FA08F5F83832896CDBFDEBFDF91CF911F91E2
S1130FB00F91FF90EF90DF90CF900895CF92DF9242
S1130FC0EF92FF920F931F93CF93DF938C017B01DA
S1130FD0EA01888399830E946502282FA801405D55
S1130FE057406DE671E0469FC001479F900D569FA4
S1130FF0900D11248E0D9F1D4115510579F0BA01F4
S113100076956795769567956F5F7F4F860F971FE7
S1131010821B91094536510508F00197069667E051
S113102070E00E94E4726C01892B19F487E0C82EE9
S1131030D12CCC82DD82C7010B968C199D0967E007
S113104070E00E94F87265337105B1F481E0C81A4A
S1131050D108EC18FD08822F90E084599E4F23E0BC
S1131060E20EF11C8E159F053CF48881998101964E
S11310708883998361E070E06A837B83672B79F4CA
S113108001501109C8010E946502682F70E064597B
S11310907E4FAE01C8010E94DE07CC82DD82DF9163
S11310A0CF911F910F91FF90EF90DF90CF90089513
S11310B01F93CF93DF93EB01142F6AE070E00E943B
S11310C0F872605D6883805D89831A83DF91CF91B4
S11310D01F910895CF93DF93CDB7DEB70E94AB3D48
S11310E00000DF91CF9108951F920F9200903F006E
S11310F00F92112400903B000F922F933F934F9334
S11311005F936F937F938F939F93AF93BF93EF936B
S1131110FF93CF93DF931F92CDB7DEB70E94826C0B
S1131120898380912240882319F489810E94410C8B
S113113080912640882319F489810E94B808000010
S11311400F90DF91CF91FF91EF91BF91AF919F915C
S11311508F917F916F915F914F913F912F910F905C
S113116000923B000F9000923F000F901F90189543
S1131170CF93DF93CDB7DEB72A97CDBFDEBF8A8783
S11311808091524690915346892B31F40E94EB573B
S11311908093524690935346809152469091534681
S11311A0892B09F45EC28A85882F90E00E94FA7424
S11311B08A8780915446882339F01A868091544650
S11311C08150809354464DC28A858B3191F41A869E
S11311D080915546843148F480915546882F90E09B
S11311E08A5A994BFC0180818A8782E08093544615
S11311F038C28A858D3009F060C080918846882382
S113120009F441C0809155468823D1F1809152461A
S11312109091534622E0FC012083809152469091A4
S113122053462091894630918A46FC0121833283BA
S113123080918B468823E1F0409152465091534669
S113124080918B46882F90E0BC0161507109809198
S11312508C46882F90E0E4E1E69F9001E79F300DF3
S11312601124240F351F820F931F0396FC01108253
S113127080915546882F90E08A5A994BFC01108240
S11312800E94DE5909C080915246909153462FEF37
S11312903FEFFC01218332831092554610928C4615
S11312A01092894610928A4610928B4610925246AA
S11312B01092534610928846D4C18A85882309F433
S11312C0D0C180915546882F90E08A5A994B2A853F
S11312D0FC01208380915546882309F47CC18A85CA
S11312E08F3709F0A1C080915546815080935546AF
S11312F080918B46882329F52091894630918A462E
S113130080915546882F90E08A5A994BFC01808140
S1131310882F90E0A901481B590BCA018093894684
S113132090938A468091894690918A462AE030E0DB
S1131330B9010E94F872CB018093894690938A4642
S113134063C080918C46882311F180918C46815032
S113135080938C46409152465091534680918B46DF
S1131360882F90E0BC016150710980918C46882FD0
S113137090E0E4E1E69F9001E79F300D1124240FF3
S1131380351F820F931F0396FC0110823DC080918C
S11313905546882F90E08A5A994BFC01808180320F
S11313A0D9F480918B46815080938B46209152468C
S11313B03091534680918B46482F50E064E1649FFE
S11313C0C001659F900D11240396820F931F0E9404
S11313D02F7580938C4618C0209152463091534605
S11313E080918B46482F50E064E1649FC001659F63
S11313F0900D1124820F931F0396FC01108280919B
S11314008B46815080938B4680915546882F90E07F
S11314108A5A994BFC01108280915546882309F021
S11314201AC11092884617C18A85803209F055C0C6
S113143080915546882F90E001978A5A994BFC0178
S11314408081803239F080918B46882F90E001961C
S1131450039714F01A86FFC080918B468823E1F02D
S1131460409152465091534680918B46882F90E08C
S1131470BC016150710980918C46882F90E0E4E1B1
S1131480E69F9001E79F300D1124240F351F820F32
S1131490931F0396FC01108280918B468F5F80938B
S11314A08B4610928C4680915546882F90E0019689
S11314B08A839B8381E390E08C839D832A813B8193
S11314C08C819D81281739071CF48A819B8102C075
S11314D08C819D8180935546BEC080918C46853118
S11314E008F077C080918B468823E1F48091894687
S11314F090918A46880F991F9C01220F331F220F57
S1131500331F280F391F8A85882F90E0820F931F7D
S11315108093894690938A4680918C468F5F80930E
S11315208C463DC0409152465091534680918B4623
S1131530882F90E0BC016150710980918C4691E044
S1131540980F90938C46882F90E0E4E1E69F9001F9
S1131550E79F300D1124240F351F820F931F03962C
S11315602A85FC0120834091524650915346809134
S11315708B46882F90E0BC016150710980918C46A4
S1131580882F90E0E4E1E69F9001E79F300D11245D
S1131590240F351F820F931F0396FC011082809144
S11315A05546882F90E001968E839F8381E390E0D7
S11315B0888799872E813F818885998528173907DF
S11315C01CF48E819F8102C088859985809355463D
S11315D042C01A8640C08A858F3769F48091894653
S11315E090918A46181619060CF01A8610928946AC
S11315F010928A4630C08A85803211F41A862BC034
S113160010928B468A85882F90E080938946909328
S11316108A46198289818330B0F4209152463091F0
S113162053468981482F50E064E1649FC001659F5F
S1131630900D1124820F931F0396FC01108289815F
S11316408F5F8983E7CF81E08093884680915546F8
S11316508F5F809355468A85882319F08A850E9476
S1131660EF5900002A96CDBFDEBFDF91CF910895D8
S11316701F920F9200903F000F92112400903B00A4
S11316800F922F933F934F935F936F937F938F9317
S11316909F93AF93BF93EF93FF93CF93DF93CDB714
S11316A0DEB780912240882309F045C080918D46A1
S11316B090918E46892B31F40E94284E80938D465A
S11316C090938E4620918D4630918E4680918F4620
S11316D0882F90E0820F931FFC0180818823A9F05A
S11316E080E098E040918D4650918E4620918F463F
S11316F031E0320F30938F46222F30E0240F351F14
S1131700F9012081FC01228316C010928F4680913A
S11317108D4690918E46FC0110820E94284E809343
S11317208D4690938E4680918D4690918E46892B5E
S113173011F40E946D4F80912640882309F045C022
S11317408091904690919146892B31F40E9455578F
S11317508093904690939146209190463091914683
S113176080919246882F90E0820F931FFC01808124
S11317708823A9F080E098E04091904650919146EA
S11317802091924631E0320F30939246222F30E07E
S1131790240F351FF9012081FC01228316C0109209
S11317A092468091904690919146FC0110820E944D
S11317B0555780939046909391468091904690918E
S11317C09146892B11F40E94AA580000DF91CF9111
S11317D0FF91EF91BF91AF919F918F917F916F9105
S11317E05F914F913F912F910F9000923B000F908A
S11317F000923F000F901F9018951F920F92009037
S11318003F000F92112400903B000F922F933F93BF
S11318104F935F936F937F938F939F93AF93BF93F4
S1131820EF93FF93CF93DF931F92CDB7DEB70E9460
S1131830E06B898380912240813019F489810E9470
S1131840410C80912640813019F489810E94B808A6
S113185000000F90DF91CF91FF91EF91BF91AF9175
S11318609F918F917F916F915F914F913F912F91B4
S11318700F9000923B000F9000923F000F901F903A
S11318801895CF93DF931F92CDB7DEB789838091EC
S1131890934690919446892B31F40E94B64E8093DE
S11318A09346909394468091934690919446892BC5
S11318B009F466C18981882F90E00E94FA748983B3
S11318C09091954681E08927882339F089818C3568
S11318D021F481E0809395463CC19091954681E046
S11318E08927882309F443C08981843219F08981C6
S11318F08132E9F5109296468091934690919446F0
S11319002981213211F423E001C021E0FC0120836C
S113191010929746109298461092994610929A46C1
S113192010929B4681E080939C4610929D46809144
S11319309D468330C8F4209193463091944680911B
S11319409D46482F50E065E1649FC001659F900D5E
S11319501124820F931F0396FC01108280919D46EF
S11319608F5F80939D46E3CF10929D46F2C0809195
S11319709C46882309F4D0C09091954681E089273C
S1131980882309F475C089818C3239F089818B33BD
S113199021F089818F3309F06BC080919D468823A3
S11319A0E1F0409193465091944680919D46882F52
S11319B090E0BC016150710980919746882F90E0B6
S11319C0E5E1E69F9001E79F300D1124240F351FB8
S11319D0820F931F0396FC01108280919D468F5FB6
S11319E080939D461092974689818B33B1F4809100
S11319F09646843078F020919346309194468091B5
S1131A00984690919946A0919A46B0919B46F901C7
S1131A108183928310929C461FC089818F33E1F4A5
S1131A20809193469091944622E0FC01208380911A
S1131A309646833078F02091934630919446809175
S1131A40984690919946A0919A46B0919B46F90187
S1131A508183928310929C4690919C4681E08927D1
S1131A60882309F476C0109293461092944671C06C
S1131A7080919D46882361F580919846909199467E
S1131A80A0919A46B0919B46880F991FAA1FBB1F2D
S1131A909C01AD01220F331F441F551F220F331F1A
S1131AA0441F551F280F391F4A1F5B1F8981882F28
S1131AB090E0A0E0B0E0820F931FA41FB51F8093B5
S1131AC0984690939946A0939A46B0939B4621C01A
S1131AD0409193465091944680919D46882F90E082
S1131AE0BC01615071098091974691E0980F9093E1
S1131AF09746882F90E0E5E1E69F9001E79F300D3F
S1131B001124240F351F820F931F03962981FC0192
S1131B102083109295461DC089818D30D1F4809127
S1131B20934690919446FC011182128282E3809341
S1131B3096461092974610929846109299461092A3
S1131B409A4610929B4610929D461092934610928C
S1131B5094469091954681E08927882389F0809165
S1131B6096468F5F809396469091964681E0923395
S1131B7008F480E0882321F010929C461092964647
S1131B8000000F90DF91CF9108951F920F92009063
S1131B903F000F92112400903B000F922F933F932C
S1131BA04F935F936F937F938F939F93AF93BF9361
S1131BB0EF93FF93CF93DF93CDB7DEB780912640A9
S1131BC0813009F045C080919E4690919F46892BB3
S1131BD031F40E94555780939E4690939F462091DE
S1131BE09E4630919F468091A046882F90E0820FB8
S1131BF0931FFC0180818823A9F080E298E0409142
S1131C009E4650919F462091A04631E0320F30937A
S1131C10A046222F30E0240F351FF9012081FC015A
S1131C20228316C01092A04680919E4690919F46B2
S1131C30FC0110820E94555780939E4690939F46C4
S1131C4080919E4690919F46892B11F40E94AA5838
S1131C5080912240813009F045C08091A146909145
S1131C60A246892B31F40E94284E8093A14690937A
S1131C70A2462091A1463091A2468091A346882F86
S1131C8090E0820F931FFC0180818823A9F080E2F9
S1131C9098E04091A1465091A2462091A34631E09C
S1131CA0320F3093A346222F30E0240F351FF90161
S1131CB02081FC01228316C01092A3468091A14684
S1131CC09091A246FC0110820E94284E8093A14666
S1131CD09093A2468091A1469091A246892B11F43B
S1131CE00E946D4F0000DF91CF91FF91EF91BF9162
S1131CF0AF919F918F917F916F915F914F913F91A0
S1131D002F910F9000923B000F9000923F000F9094
S1131D101F901895CF93DF9300D0CDB7DEB789839A
S1131D206A838A818823A9F020E030E080E090E093
S1131D30FC018181682F8981482F50E081E090E087
S1131D4002C0880F991F4A95E2F7862BF901818317
S1131D5015C020E030E080E090E0FC018181682F34
S1131D608981482F50E081E090E002C0880F991FDC
S1131D704A95E2F780958623F901818300000F904C
S1131D800F90DF91CF910895CF93DF931F92CDB73A
S1131D90DEB789838CE090E0FC018281882F90E09B
S1131DA02981222F30E002C0959587952A95E2F784
S1131DB08170992721E0892B09F420E0822F0F906C
S1131DC0DF91CF9108951F920F9200903F000F92E0
S1131DD0112400903B000F922F933F934F935F93F6
S1131DE06F937F938F939F93AF93BF93EF93FF93DF
S1131DF0CF93DF93CDB7DEB780E491E0FC0183811C
S1131E00882F90E08170992721E0892B09F420E044
S1131E10222321F00E9469060E942B0F80E491E0A6
S1131E2023E0FC0123830000DF91CF91FF91EF9128
S1131E30BF91AF919F918F917F916F915F914F91DE
S1131E403F912F910F9000923B000F9000923F0022
S1131E500F901F901895EF92FF920F931F93CF93BB
S1131E60DF93CDB7DEB76397CDBFDEBF8091244744
S1131E70882309F486C09091134081E0923009F0E0
S1131E8080E0882309F451C08091DD469091DE46BC
S1131E90A091DF46B091E0468827B7FD8395992746
S1131EA0AA27BB27882399F08091DD469091DE46CE
S1131EB0A091DF46B091E0460196A11DB11D80932B
S1131EC0DD469093DE46A093DF46B093E0468091D2
S1131ED0DD469091DE46A091DF46B091E0468B3F0F
S1131EE09F4FAF4FBF4F9CF480E090E00E943706B5
S1131EF09B01AC018091254790912647A0912747EB
S1131F00B0912847281739074A075B0710F081E08A
S1131F1001C080E0882309F4C5C3109223471092BE
S1131F20244781E080932947BDC380E090E00E946C
S1131F3037069B01AC018091254790912647A091DB
S1131F402747B091284761E0281739074A075B07FC
S1131F5008F460E0662341F010922347109224476E
S1131F6081E0809329479EC380910640882309F429
S1131F7099C3109223471092244782E08093294703
S1131F8091C31D821E821F82188680912047882358
S1131F9009F45DC080911B4790911C47A0911D4797
S1131FA0B0911E47892B8A2B8B2B71F0909121477E
S1131FB081E08927882341F09091E54681E08927D3
S1131FC0882311F081E001C080E0882309F43FC038
S1131FD080E090E00E943706DC01CB018D839E8374
S1131FE0AF83B88780911B4790911C47A0911D47F0
S1131FF0B0911E4761E02D813E814F81588528179D
S113200039074A075B0708F460E0662301F18CEFA7
S11320108093D7461092DD461092DE461092DF463A
S11320201092E04680E00E943E6810921F47109292
S1132030204781E08093214782E08093E44660E07A
S113204082E397E40E94F64A83E0809313408091F0
S11320501F47882309F4AFC280912047882309F4DD
S113206002C28091E1469091E24621E0892B09F475
S113207020E0222349F08091E1469091E2460197C5
S11320808093E1469093E2468091DD469091DE464E
S1132090A091DF46B091E04621E0892B8A2B8B2B5F
S11320A009F420E0222309F486C28091DD46909150
S11320B0DE46A091DF46B091E04621E018161906ED
S11320C01A061B060CF020E0222309F470C180914B
S11320D0DD469091DE46A091DF46B091E04601973F
S11320E0A109B1098093DD469093DE46A093DF46B3
S11320F0B093E0468091E1469091E246892B41F409
S11321008091134790911447892B11F081E001C00D
S113211080E08823A9F180911347909114479C0192
S113212040E050E08091DD469091DE46A091DF468C
S1132130B091E04661E0281739074A075B0709F0C8
S113214060E06623E9F08FEE8093D74680911140DA
S1132150909112408093E1469093E24680910B4027
S11321600E941E298093074090930840198ACE014B
S1132170419640E050E0BC018EEF96E40E9472511B
S11321808091DD469091DE46A091DF46B091E04615
S113219021E0892B8A2B8B2B09F020E0222309F4E0
S11321A00AC280910F409091104021E0892B09F4DC
S11321B020E0222309F4E2C080E00E943E6880917E
S11321C00F40909110402091DD463091DE464091C1
S11321D0DF465091E046092E000CAA0BBB0B790197
S11321E08A01E81AF90A0A0B1B0BD801C70180936C
S11321F0DD469093DE46A093DF46B093E04681E04F
S1132200898BCE01419640E050E0BC0189EE96E412
S11322100E9472518EEF8093D74660E082E397E488
S11322200E94F64A19821A821B821C8280E090E086
S11322300E943706DC01CB018D839E83AF83B88770
S113224080911B4790911C47A0911D47B0911E4758
S113225061E02D813E814F815885281739074A074F
S11322605B0708F060E06623B1F080911B47909112
S11322701C47A0911D47B0911E472D813E814F817F
S11322805885BC01CD010E948D6CDC01CB01898392
S11322909A83AB83BC8320910F403091104080918E
S11322A00D4090910E40820F931F0F969C01990F41
S11322B0440B550B61E089819A81AB81BC8128175D
S11322C039074A075B070CF060E0662309F473C121
S11322D080910F4090911040409734F080910940D4
S11322E0882311F481E001C080E0882309F463C1EC
S11322F080910F40909110400A97092E000CAA0B70
S1132300BB0B89879A87AB87BC872D813E814F8120
S1132310588589859A85AB85BC85820F931FA41F38
S1132320B51F8093254790932647A0932747B093E2
S1132330284782E08093134081E0809323471D86E1
S11323401E862091E1463091E24689859A8589016D
S1132350081B190BC8018F87988B2D853E858F85A7
S11323609889281739071CF48F85988902C08D85B0
S11323709E858093E1469093E2461DC180910D4075
S113238090910E40092E000CAA0BBB0B8093DD46E6
S11323909093DE46A093DF46B093E04680910C40D4
S11323A00E941E29809307409093084004C18091A5
S11323B0DD469091DE46A091DF46B091E046882745
S11323C0B7FD83959927AA27BB27882309F4F3C06F
S11323D08091DD469091DE46A091DF46B091E046C3
S11323E00196A11DB11D8093DD469093DE46A09316
S11323F0DF46B093E0468091DD469091DE46A091A1
S1132400DF46B091E04621E0892B8A2B8B2B09F023
S113241020E0222309F4CFC08DEF8093D74680912A
S11324200D4090910E40092E000CAA0BBB0B80931B
S1132430DD469093DE46A093DF46B093E04680915C
S11324400C400E941E29809307409093084081E02D
S11324508A8BCE01429640E050E0BC0189EE96E4BE
S11324600E947251A8C08091174790911847A0917B
S11324701947B0911A4721E0892B8A2B8B2B09F439
S113248020E0222309F497C080E090E00E94370600
S1132490DC01CB018D839E83AF83B887809117477E
S11324A090911847A0911947B0911A4761E02D8186
S11324B03E814F815885281739074A075B0708F47E
S11324C060E0662309F477C0809115479091164720
S11324D021E0892B09F420E0222371F18EEF80930F
S11324E0D74680911547909116479195819591090A
S11324F0092E000CAA0BBB0B8093DD469093DE469D
S1132500A093DF46B093E0462091154730911647DB
S113251080910D4090910E40820F931F9C018091F9
S1132520134790911447A901481B590BCA01809382
S1132530E1469093E24637C08DEF8093D746809171
S11325400D4090910E40092E000CAA0BBB0B8093FA
S1132550DD469093DE46A093DF46B093E04680913B
S11325600D4090910E409C01809113479091144727
S11325707901E81AF90AC7018093E1469093E2468B
S113258080910C400E941E2980930740909308403C
S113259081E08B8BCE01439640E050E0BC0189EE94
S11325A096E40E94725181E08093204761E082E3C7
S11325B097E40E94504B8091E7469091E84680E072
S11325C0882309F46FC09091E44681E0992309F4CB
S11325D080E08823C1F08091E44681508093E446F2
S11325E09091E44681E0992309F080E0882309F47E
S11325F059C081E00E94624680E00E94794688E7E3
S1132600809309404FC08091E546882361F49091FE
S1132610214781E08927882341F09091224781E076
S11326208927882311F081E001C080E0882399F193
S11326309091094081E0992309F480E0882359F1BD
S113264080910940815080930940809109408823FA
S113265041F49091474781E08927882311F081E074
S113266001C080E08823B9F01092E64681E00E9420
S1132670794680E00E9462461092E54610920A4034
S11326809091134081E0992309F480E0882319F0A4
S113269081E08093234780910A40882319F081E0E8
S11326A08093E34600006396CDBFDEBFDF91CF91F8
S11326B01F910F91FF90EF9008951F920F92009039
S11326C03F000F92112400903B000F922F933F93F1
S11326D04F935F936F937F938F939F93AF93BF9326
S11326E0EF93FF93CF93DF93CDB7DEB72897CDBF9A
S11326F0DEBF80E09BE0FC018681882F90E0817042
S1132700992721E0892B09F420E0222309F470C2DF
S11327108091D8469091D94621E0892B09F420E094
S1132720222349F08091D8469091D946019780930D
S1132730D8469093D94683E00E94C40E982F81E036
S113274089278823A1F080912D4790912E4721E07D
S1132750883E934008F020E0222349F080912D47E1
S113276090912E47019680932D4790932E470E9477
S1132770162880911F47882331F0809120478823B1
S113278011F081E001C080E0882309F4AAC080919F
S1132790DD469091DE46A091DF46B091E04621E00F
S11327A0181619061A061B060CF020E0222309F459
S11327B071C08091484790914947892B09F456C0CC
S11327C08091484790914947019780934847909357
S11327D049478091484790914947892B09F042C164
S11327E09E01295F3F4FCE010696A901BC0180E0FE
S11327F090E00E94725180934A479E8181E089272C
S1132800882331F18F81882319F18DEF8093D74686
S113281080910C400E941E298093074090930840A9
S113282081E08E83CE01069640E050E0BC0189EE43
S113283096E40E9472519E01295F3F4FCE01069695
S1132840A901BC0180E090E00E94725180934A4744
S113285080914A47882309F405C181E00E94A36757
S113286061E082E397E40E94F64AFCC080914A4703
S11328700E943E6880914A47682F82E397E40E9451
S1132880F64A80910740909108408093484790937E
S11328904947E8C08091DD469091DE46A091DF462D
S11328A0B091E04621E0892B8A2B8B2B09F020E0A4
S11328B0222309F4D7C080914A47882309F4D2C05F
S11328C010924A4780E00E943E6860E082E397E409
S11328D00E94F64A80E00E94A3678EEF8093D74659
S11328E0C1C080914747882309F4BCC083E397E4BF
S11328F00E948E3B89831E828981882389F180917D
S11329001840882369F19091194081E08927882330
S113291009F4A8C080914A47882369F010924A4775
S113292080E00E943E6860E082E397E40E94F64AF9
S113293080E00E94A36780910740909108408093B3
S1132940484790934947CE01069640E050E0BC01C9
S113295087E590E40E94725181E08093194082C01F
S1132960109219408091484790914947892B09F466
S113297066C08091484790914947019780934847A2
S1132980909349478091484790914947892B09F092
S113299069C0CE01069648E150E4BC0180E090E0B5
S11329A00E94725180934A4780911840882369F1AC
S11329B083E397E40E948E3B982F81E08927882344
S11329C021F180910C400E941E298093074090932E
S11329D0084083E397E40E94713C80934B47109234
S11329E04C47CE01069640E050E0BC018BE497E4EE
S11329F00E947251CE01069648E150E4BC0180E089
S1132A0090E00E94725180934A479091184081E06F
S1132A1089270E94A36780914A470E943E6880915B
S1132A204A47682F82E397E40E94F64A8091074060
S1132A3090910840809348479093494713C08091F0
S1132A404A470E943E6880914A47682F82E397E490
S1132A500E94F64A8091074090910840809348472D
S1132A609093494790914D4781E08927882309F441
S1132A706AC08FEF80934E471886988581E099232A
S1132A8009F080E08823D9F18885882F90E0880FA9
S1132A90991F8B5E9F4BFC018081918121E0892BE2
S1132AA009F420E02223A1F08885882F90E09C017E
S1132AB0220F331F2B5E3F4BF901208131812150BE
S1132AC03109880F991F8B5E9F4BFC012083318352
S1132AD08885882F90E0880F991F8B5E9F4BFC019F
S1132AE08081918121E0892B09F020E0222319F0D3
S1132AF0888580934E4788858F5F8887BECF809175
S1132B004E4788230CF474C080914E47082E000C65
S1132B10990B20E639E0880F991F8B5E9F4BFC01CF
S1132B202083318380914E47082E000C990B8C5ED4
S1132B309F4BFC0180810E945E360E94C03681E07A
S1132B4080934D4755C00E94D536882309F450C060
S1132B500E94E9368A839B838A819B810B97C0F10B
S1132B608A819B818A3F9F4098F58A819B818093CB
S1132B704F479093504780914E47082E000C990B75
S1132B80880F991F855D984BFC01808191818C830E
S1132B909D8380914E47082E000C990B865D984BBF
S1132BA021E0FC01208380914F47909150478C8312
S1132BB09D8380914E47082E000C990B880F991F16
S1132BC0855D984B2C813D81FC01208331830EC0AF
S1132BD080914E47082E000C990B880F991F855D34
S1132BE0984BFC01808191818A839B8310924D478D
S1132BF080E09BE023E0FC01268300002896CDBF03
S1132C00DEBFDF91CF91FF91EF91BF91AF919F9183
S1132C108F917F916F915F914F913F912F910F9081
S1132C2000923B000F9000923F000F901F90189568
S1132C301F920F9200903F000F92112400903B00CE
S1132C400F922F933F934F935F936F937F938F9341
S1132C509F93AF93BF93EF93FF93CF93DF93CDB73E
S1132C60DEB780E694E0FC018185882F90E08870CF
S1132C70992721E0892B09F420E0222309F463C079
S1132C8080912447882371F010922347109224479F
S1132C9082E397E40E94254B83E0809329471092B6
S1132CA022474DC080912D4790912E4721E0883EC8
S1132CB0934008F420E0222321F081E080932F4701
S1132CC03EC080912D4790912E4721E00B9708F448
S1132CD020E02223A1F11092E7461092E84682E315
S1132CE097E40E94D14A982F81E08927882329F00C
S1132CF082E397E40E94254B22C08091E74690919D
S1132D00E84681E08823D9F40E94A4468823A1F0F0
S1132D1088E0E9E5F0E4A4EAB6E401900D928A952E
S1132D20E1F744EA56E461E670E481E00E94E95088
S1132D3085E08093094003C082E08093E4461092CA
S1132D402D4710922E4780E694E02FEFFC01218757
S1132D500000DF91CF91FF91EF91BF91AF919F91CF
S1132D608F917F916F915F914F913F912F910F9030
S1132D7000923B000F9000923F000F901F90189517
S1132D80CF93DF93CDB7DEB780E00E94A36760E006
S1132D9082E00E948A0E0000DF91CF910895CF93C4
S1132DA0DF93CDB7DEB780E00E94A3670000DF9118
S1132DB0CF910895CF93DF93CDB7DEB72897CDBFDA
S1132DC0DEBF0E946A0860E082E397E40E94504BF1
S1132DD00E94CF168CE397E40E94ED438CE397E4C2
S1132DE00E94A14181E00E94794681E00E946246EE
S1132DF080E090E00E943706DC01CB0189839A834E
S1132E00AB83BC8360ED77E080E090E00E94636573
S1132E10882389F080E090E00E9437069B01AC0192
S1132E2089819A81AB81BC81281739074A075B07DE
S1132E3011F481E001C080E0882309F0E3CF80E051
S1132E4090E00E9437069B01AC0161E089819A8180
S1132E50AB81BC81281739074A075B0709F060E09A
S1132E60662359F08091E7469091E846816080930B
S1132E70E7469093E8460E941E550E949046882398
S1132E8039F080E00E94624683E08093E44613C0F8
S1132E9080E00E94624681E00E9479461092E446F6
S1132EA0109209408091E7469091E84684608093AF
S1132EB0E7469093E8460E945669982F81E099234B
S1132EC009F480E0882381F00E94AB68982F81E0A8
S1132ED08927882349F08091E7469091E8468260EB
S1132EE08093E7469093E8460E9464288093DB46EB
S1132EF08091E7469091E8468370992721E0892BD9
S1132F0009F420E0222331F06DE082E397E40E948B
S1132F10504B0FC08091DB46882331F064E082E39C
S1132F2097E40E94504B05C067E082E397E40E9457
S1132F30504B0E945A200E947B1980912D479091FA
S1132F402E4721E0883E934008F420E0222329F014
S1132F5067E082E397E40E94504B80912F478823D7
S1132F6061F080911F47882319F00E94DE2B03C073
S1132F7081E08093214710922F478091DB4688237C
S1132F80E1F11092DB461F82CE0107960E94782958
S1132F908093D64661E082E397E40E94504B80918F
S1132FA01F47882331F065E082E397E40E94504B89
S1132FB005C068E082E397E40E94504B9091094079
S1132FC081E0992309F480E08823B9F080910940D5
S1132FD088878AE090E08D839E838885282F30E05F
S1132FE08D819E812817390724F08885882F90E0E9
S1132FF002C08D819E81809309408091DC468823A4
S113300021F01092DC460E94DE2B8091E346882357
S113301059F11092E34680E090E00E943706DC010B
S1133020CB012B2F2F932A2F2F93292F2F938F935D
S113303085E690E4892F8F9385E690E48F9384EA64
S113304096E4892F8F9384EA96E48F930E946475A3
S11330508DB79EB70896CDBFDEBF44EA56E469E655
S113306070E483E00E94E9509091D64681E0992370
S113307009F480E0882331F18091D646882F90E0CE
S1133080292F2F938F938DE690E4892F8F938DE6CC
S113309090E48F9384EA96E4892F8F9384EA96E4EC
S11330A08F930E9464750F900F900F900F900F9064
S11330B00F9044EA56E460E770E483E00E94E9502C
S11330C01092D6469091D74681E0992309F480E086
S11330D0882331F18091D746882F90E0292F2F93B0
S11330E08F938DE690E4892F8F938DE690E48F93F0
S11330F084EA96E4892F8F9384EA96E48F930E945E
S113310064750F900F900F900F900F900F9044EAFA
S113311056E463E770E483E00E94E9501092D746D6
S113312080912147882309F441C08091E646882391
S113313069F11092214781E0809322478091D7461C
S1133140882F90E0292F2F938F938DE690E4892F79
S11331508F938DE690E48F9384EA96E4892F8F937E
S113316084EA96E48F930E9464750F900F900F90F9
S11331700F900F900F9046E750E461E670E483E00F
S11331800E94E95083E08093134010C0809109406D
S1133190882331F48091E446882311F481E001C04E
S11331A080E0882319F081E08093E4468091064012
S11331B0882389F0109206409091DA4681E091309C
S11331C009F080E0882321F081E00E94136803C0A5
S11331D080E00E94136880912347882309F4A9CED4
S11331E060E082E397E40E94504B0E9425500E94C5
S11331F0426981E00E94794680E00E9462460E9412
S1133200C0161092224782E00E94F76481E0809306
S11332102447809123478823B1F0F89480E590E017
S113322020E530E0F90120812160FC0120837894BD
S1133230889580E590E020E530E0F90120812E7F3B
S1133240FC012083E6CF109224470E946A080E9462
S1133250CF160E94566980912947833041F08091AE
S11332602947823021F080912947882311F481E095
S113327001C080E08823F1F082E397E40E94BD4A14
S113328080911F47882331F065E082E397E40E9430
S1133290504B05C068E082E397E40E94504B61E024
S11332A082E397E40E94504B0E945A5082E080933C
S11332B0E4461DC09091294781E0913009F080E0F7
S11332C08823A9F090911F4781E08927882379F00A
S11332D00E9464288093DB469091DB4681E0892735
S11332E0882329F00E945A5082E08093E4468DEEB0
S11332F08093D7461ECEEF92FF920F931F93CF93E6
S1133300DF93CDB7DEB7C559D109CDBFDEBF0E946B
S113331037588E839F8321E08E819F81892B09F406
S113332020E0222309F4BAC68E819F81FC018181A9
S1133330928188879987888599858A3EF2E29F07DA
S113334009F4A4C38B3E22E29207B8F48F36EDE170
S11333509E0709F4EDC38037FDE19F0728F48E3101
S1133360934009F481C288C6863CEEE19E07E9F0E9
S1133370813D9E4109F4A9C17FC6823723E29207A9
S113338009F400C38337E3E29E0728F4883F92429E
S113339009F438C171C6843324E2920709F429C2BE
S11333A0853C944209F454C667C68E819F81FC0112
S11333B08381882F90E089839A8389819A81892BDC
S11333C009F4D0C089819A818234910519F4198253
S11333D01A82ACC089819A818634910529F486E0E9
S11333E090E089839A83A2C089819A81833491056C
S11333F0B9F58E819F81FC0187898B838E819F81A2
S1133400FC01108E8B81823411F480E38B838B81D9
S1133410882F90E0C0970A9708F088C08E819F811A
S113342047960E94B5748A879B871C8685E08D87A2
S11334308D85282F30E08A859B852817390724F449
S11334408D85882F90E009C08C85882F90E02A858F
S11334503B85821793070CF4C90189839A8366C05C
S113346089819A818335910509F059C01C828E8126
S11334709F81FC0187898E878E819F81FC01808DCD
S11334808F878E819F81FC01118E8E85823411F489
S11334901C8236C08E85863451F48F85813380F149
S11334A08F85863368F58F8584528C8329C08E85F9
S11334B0833569F48F85813338F08F85863320F422
S11334C08F8589528C831CC087E08C8319C08F85BB
S11334D0863451F48E85813398F08E85863380F45A
S11334E08E8584528C830CC08F85833549F48E85F8
S11334F0813330F08E85863318F48E8589528C831F
S11335008C81873048F08C81823130F48C81882F13
S113351090E089839A830AC019821A8207C08E8137
S11335209F8103960E94B57489839A8389819A81C5
S11335309923C4F089819A814297A4F489818AA746
S1133540CE018A96AC016EE38CE397E40E94893E37
S11335509AA580911740981729F0CE018A9660E0C9
S11335600E94272D80911740682F84EA96E40E94D8
S11335704E6F982F81E08927882311F1CE018B9615
S113358064EA76E40E942875CE018B96292F2F9346
S11335908F9388E790E4892F8F9388E790E48F9343
S11335A084EA96E4892F8F9384EA96E48F930E94A9
S11335B064750F900F900F900F900F900F901DC097
S11335C080911740882F90E0292F2F938F9380E8C4
S11335D090E4892F8F9380E890E48F9384EA96E4B3
S11335E0892F8F9384EA96E48F930E9464750F90D9
S11335F00F900F900F900F900F9084EA96E40E9422
S1133600085A44C58E819F81FC0183818823E9F196
S11336108E819F8103960E94B57480935147909345
S1133620524780915147909152478938934168F4A9
S113363060E070E081E597E40E94B468888B888933
S1133640882319F088898093D6460E94A068292F80
S11336502F938F9388E890E4892F8F9388E890E4E0
S11336608F9384EA96E4892F8F9384EA96E48F9368
S11336700E9464750F900F900F900F900F900F9011
S113368084EA96E40E94085A01C50E94A068292F82
S11336902F938F9388E890E4892F8F9388E890E4A0
S11336A08F9384EA96E4892F8F9384EA96E48F9328
S11336B00E9464750F900F900F900F900F900F90D1
S11336C084EA96E40E94085AE1C4198A1A8A1B8A79
S11336D01C8A8E819F81FC018381882349F18E811C
S11336E09F8103969E012C5B3F4FB9010E94896D17
S11336F0CE018C5B9F4F61E00E944067982F81E070
S11337008927882389F0CE018C5B9F4FFC0180813F
S11337109181A281B381898B9A8BAB8BBC8B8CE317
S113372097E40E94F13F04C083E990E40E94085AA0
S11337300E949267DC01CB01898B9A8BAB8BBC8B8B
S113374089899A89AB89BC89892B8A2B8B2B09F4AB
S113375098C489899A89AB89BC899E01285B3F4FAB
S1133760AC01BD01C9010E940D6D982F81E089272C
S11337708823E9F0CE01885B9F4F292F2F938F93E5
S11337808EEB90E4892F8F938EEB90E48F9384EAF1
S113379096E4892F8F9384EA96E48F930E9464754C
S11337A00F900F900F900F900F900F901DC08C8969
S11337B08F938B898F938A898F9389898F9386ECD2
S11337C090E4892F8F9386EC90E48F9384EA96E4B7
S11337D0892F8F9384EA96E48F930E9464758DB742
S11337E09EB70896CDBFDEBF84EA96E40E94085ACD
S11337F048C48E819F81FC018381882381F18E815D
S11338009F81FC018381803321F482E00E94702C2B
S11338103DC48E819F81FC018381813321F482E048
S11338200E940E2C33C48E819F81FC0183818233DC
S113383029F410921F470E949E2C28C48E819F81D8
S1133840FC018381833331F462E080E090E00E94E4
S1133850272D1CC48FEC90E40E94085A17C48FECE7
S113386090E40E94085A12C48E819F81FC018381D6
S1133870882309F441C080E290E08093A4469093A9
S1133880A5468E819F810396BC0184EA96E40E943A
S113389009758E819F81FC0187898823D1F084EA90
S11338A096E49C01F90101900020E9F7CF0101970A
S11338B0821B930B8C55994B20E230E0FC01208352
S11338C031838E819F814796BC0184EA96E40E94ED
S11338D0097584EA96E40E942F75459768F464EAB2
S11338E076E48EEF96E40E94287544EA56E46AE092
S11338F08CE397E40E94893E8091FE46882301F17F
S113390080910B40882F90E0BC018EEF96E40E94DA
S1133910CA52885A9D4F9695879596958795969500
S113392087959C01A5ECB0E20E945673929582950E
S11339308F7089279F70892780931347909314472A
S11339408EEF96E4892F8F938EEF96E48F9384ED18
S113395090E4892F8F9384ED90E48F9384EA96E426
S1133960892F8F9384EA96E48F930E9464750F9055
S11339700F900F900F900F900F9084EA96E40E949E
S1133980085A84C38E819F81FC018381833509F0A9
S11339906FC08E819F81FC0187898D8B8D898823DF
S11339A009F448C08E819F8147960E94D374DC013C
S11339B0CB018E8B8E898F8B85E0888F84E1898FF4
S11339C09F89898D891740F09F89888D981710F4F5
S11339D0888D03C08F8901C0898D80930B404BE093
S11339E050E46DE38CE397E40E94893E8091FE46A7
S11339F0882301F180910B40882F90E0BC018EEF69
S1133A0096E40E94CA52885A9D4F9695879596953A
S1133A108795969587959C01A5ECB0E20E94567314
S1133A20929582958F7089279F7089278093134779
S1133A309093144780910B40882F90E0292F2F9367
S1133A408F938BED90E4892F8F938BED90E48F937C
S1133A5084EA96E4892F8F9384EA96E48F930E94F4
S1133A6064750F900F900F900F900F900F9009C0F6
S1133A7085E0EFECF0E4A4EAB6E401900D928A95B7
S1133A80E1F784EA96E40E94085A00C38E819F817C
S1133A90FC018381882351F18E819F81039648E044
S1133AA050E0BC0184EA96E40E9438751092AC465A
S1133AB084EA96E40E94E66C882341F084EA96E462
S1133AC00E942F75049710F081E001C080E08823E4
S1133AD069F064EA76E48EE397E40E9428754EE385
S1133AE057E464E38CE397E40E94893E8EE397E411
S1133AF0892F8F938EE397E48F938DEE90E4892F33
S1133B008F938DEE90E48F9384EA96E4892F8F93BC
S1133B1084EA96E48F930E9464750F900F900F903F
S1133B200F900F900F9084EA96E40E94085AAEC258
S1133B301D8280E090E00E943706DC01CB018A8F71
S1133B409B8FAC8FBD8F8E819F81FC0183818823E5
S1133B5039F08E819F81FC018381843509F00FC186
S1133B608E819F81FC018789882369F08E819F81E2
S1133B7047964CE050E0BC0184EA96E40E94387514
S1133B801092B046F9C01EA28EA1882351F088E29B
S1133B90E5EFF0E4A4EAB6E401900D928A95E1F72A
S1133BA0EBC0AE014C595F4F8A8D9B8DAC8DBD8DA2
S1133BB022E330E0BC01CD010E940335292F2F936D
S1133BC08F938DE191E4892F8F938DE191E48F930D
S1133BD084EA96E4892F8F9384EA96E48F930E9473
S1133BE064750F900F900F900F900F900F9084EAD0
S1133BF096E40E94085A8091174790911847A09123
S1133C001947B0911A47AE014C595F4F22E330E097
S1133C10BC01CD010E940335292F2F938F9389E294
S1133C2091E4892F8F9389E291E48F9384EA96E457
S1133C30892F8F9384EA96E48F930E9464750F9082
S1133C400F900F900F900F900F9084EA96E40E94CB
S1133C50085A80911B4790911C47A0911D47B09131
S1133C601E47AE014C595F4F22E330E0BC01CD0149
S1133C700E940335292F2F938F9385E391E4892F95
S1133C808F9385E391E48F9384EA96E4892F8F934D
S1133C9084EA96E48F930E9464750F900F900F90BE
S1133CA00F900F900F9084EA96E40E94085A0E94A5
S1133CB0C1328FA38FA1813031F08FA1853019F0EB
S1133CC00E945B3359C020911747309118474091A7
S1133CD0194750911A478A8D9B8DAC8DBD8D0F2E3F
S1133CE0F1E4EF2EF1E4FF2EF02D0EE411E4BC011B
S1133CF0CD010E941F3120911B4730911C474091F8
S1133D001D4750911E478091174790911847A091E5
S1133D101947B0911A47E12CF12C0AE511E4BC01D2
S1133D20CD010E941F3120911747309118474091CF
S1133D30194750911A4761E08A8D9B8DAC8DBD8DDA
S1133D40281739074A075B0708F060E06623A1F0EB
S1133D5020911B4730911C4740911D4750911E47AD
S1133D608A8D9B8DAC8DBD8DE12CF12C02E611E486
S1133D70BC01CD010E941F3181E08D8361C18E8120
S1133D809F81FC018381833509F0D8C08E819F8196
S1133D904796BC0184EA96E40E94287580913D47C9
S1133DA08195482F67E177E484EA96E40E94E92F3D
S1133DB0DC01CB018E8F9F8FA8A3B9A38E8D9F8D1D
S1133DC0A8A1B9A1892B8A2B8B2B09F48AC08E8DCB
S1133DD09F8DA8A1B9A18093174790931847A093EA
S1133DE01947B0931A4747E157E462E08CE397E43C
S1133DF00E94893E80911B4790911C47A0911D47CA
S1133E00B0911E479E01245A3F4FF901808391834C
S1133E10A283B3838091174790911847A0911947C3
S1133E20B0911A4780589E4AAE4FBF4F9E01205A08
S1133E303F4FF90180839183A283B383CE01845AD7
S1133E409F4FFC012081318142815381CE01805AF0
S1133E509F4FFC0180819181A281B381281739078A
S1133E604A075B0748F4CE01805A9F4FFC018081CA
S1133E709181A281B38108C0CE01845A9F4FFC0175
S1133E8080819181A281B38180931B4790931C47C9
S1133E90A0931D47B0931E474BE157E466E08CE3C3
S1133EA097E40E94893E63E080E090E00E94272D21
S1133EB080E090E00E9437069B01AC018091174797
S1133EC090911847A0911947B0911A4761E02817BB
S1133ED039074A075B0708F060E0662311F00E9487
S1133EE09E2C8091174790911847A0911947B09143
S1133EF01A47AE014C595F4F22E330E0BC01CD01BB
S1133F000E940335292F2F938F9383E791E4892F00
S1133F108F9383E791E48F9384EA96E4892F8F93B8
S1133F2084EA96E48F930E9464750F900F900F902B
S1133F300F900F900F9081E08D8382C08E819F81BE
S1133F40FC018381863409F07BC08E819F81479672
S1133F50BC0184EA96E40E94287580913D478195CE
S1133F60482F6BE177E484EA96E40E94E92FDC01B0
S1133F70CB018AA39BA3ACA3BDA38AA19BA1ACA1A3
S1133F80BDA1892B8A2B8B2B79F18AA19BA1ACA192
S1133F90BDA180931B4790931C47A0931D47B093EA
S1133FA01E474BE157E466E08CE397E40E94893EA8
S1133FB063E080E090E00E94272D20911747309124
S1133FC018474091194750911A4761E08A8D9B8D9B
S1133FD0AC8DBD8D82179307A407B50708F060E088
S1133FE0662311F00E949E2C80911B4790911C47E0
S1133FF0A0911D47B0911E47AE014C595F4F22E37B
S113400030E0BC01CD010E940335292F2F938F93FB
S113401085E391E4892F8F9385E391E48F9384EA78
S113402096E4892F8F9384EA96E48F930E946475B3
S11340300F900F900F900F900F900F9081E08D8351
S11340408D81882301F184EA96E40E94085A1BC0FA
S11340508E819F81FC0183818334B9F48E819F8199
S1134060FC018789882389F08E819F8147960E946D
S1134070B57488A799A709C08EE791E40E94085AED
S113408005C0000003C0000001C000008E819F81B4
S1134090FC01118212820E94CB5939C90000CB560F
S11340A0DF4FCDBFDEBFDF91CF911F910F91FF9006
S11340B0EF9008950F931F93CF93DF93CDB7DEB79F
S11340C0E697CDBFDEBF81E089830E94FE4E8C87D8
S11340D09D8721E08C859D85892B09F420E022238E
S11340E009F49BC78C859D85FC01818192818E8713
S11340F09F878E859F85813DFEE19F0709F473C6E6
S1134100823D2EE1920708F03DC08438E3E09E072B
S113411009F405C38538F3E09F07D0F4853123E023
S1134120920709F41CC28631E3E09E0730F484351B
S1134130910509F44BC50C94E3278E31F3E09F07F6
S113414009F4D2C38136934009F423C60C94E327BF
S1134150863AECE19E0709F4C3C6873AFCE19F075F
S113416030F48F3A934009F446C00C94E327883125
S1134170EDE19E0709F42DC782389E4109F408C178
S11341800C94E3278A3923E2920709F4FDC08B39A2
S1134190E3E29E07C0F48E36F1E29F0709F419C7E3
S11341A08F3621E2920728F48735904209F446C0FD
S11341B00AC78D3AF2E29F0709F457C1813C924243
S11341C009F4C8C100C7803DE3E29E0709F415C4A1
S11341D0813DF3E29F0728F48F3C934209F4D6C64D
S11341E0F2C6873FE3E29E0709F42DC38C3994425B
S11341F009F4E1C6E8C68C859D85FC01838188238A
S113420009F4E9C68C859D8503960E94B57421E066
S1134210892B09F420E0288B0E94DE2B0E94255074
S11342201092094010921340988981E089278823CD
S113423009F4D1C680E00E946246CDC610921F47A1
S113424081E0809347478C859D85FC018381882389
S113425009F4C3C68C859D850396898B9A8B8989BD
S11342609A890E942F758B8B9C8B809147478D8BED
S11342708B899C890297B9F489899A89FC01808188
S11342808C3589F489899A890196FC01808182346C
S113429051F41092474783E397E40E94263C8D89AA
S11342A0809347479AC68B899C890297ACF11A82FE
S11342B01B821092474783E397E40E94B23B982FF6
S11342C081E08927882369F02A813B818B899C8935
S11342D02817390734F48A819B81459714F481E0C7
S11342E001C080E08823A1F08A819B819C012F5F1B
S11342F03F4F2A833B832C853D85820F931F039672
S1134300FC018081682F83E397E40E94C23BD3CFF2
S11343108D898093474761C68C859D85FC01838187
S11343208E8B8E898B3561F481E00E94A36767E0F0
S113433082E397E40E94504B81E00E94BC674DC623
S11343408E898D3561F480E00E94BC6780E00E9414
S1134350A36761E082E397E40E94504B3EC68E89D6
S11343608E3539F40E94DE2B1092094010921340CE
S113437034C6109247476E8983E397E40E94C23B98
S11343808D898093474729C682E00E941329FFCF75
S11343908C859D85FC0183818F8B81E080930A400D
S11343A08F898A3521F488E78093094018C68F895C
S11343B08033C9F581E08093E64680E090E00E9476
S11343C03706DC01CB012B2F2F932A2F2F93292F74
S11343D02F938F9385E690E4892F8F9385E690E45D
S11343E08F9384EA96E4892F8F9384EA96E48F93DB
S11343F00E9464758DB79EB70896CDBFDEBF44EAB0
S113440056E469E670E483E00E94E9508091224713
S1134410882309F4E4C546E750E461E670E483E0E8
S11344200E94E950DCC58F89823371F481E0809366
S1134430E44690911F4781E08927882309F4CFC57A
S113444081E08093DB46CBC58F89833309F0C7C5F0
S11344501092E44681E08093094010922247109222
S11344600A4081E08093E546BAC58C859D85FC01B0
S11344708381882309F4B5C58C859D85FC018381DE
S11344808D3481F48C859D85FC01808D882351F0C9
S11344908C859D8548960E94B5748093534790936C
S11344A0544709C08C859D8503960E94B5748093FA
S11344B05347909354470E94A0689C0180915347AE
S11344C09091544741E02817390709F440E0442308
S11344D0B9F160E070E083E597E40E94B468888FE6
S11344E0888D882321F0888D8093D64605C08091DD
S11344F055478F5F80935547809153479091544718
S1134500292F2F938F9385EC92E4892F8F9385EC39
S113451092E48F9384EA96E4892F8F9384EA96E455
S11345208F930E9464750F900F900F900F900F90CF
S11345300F9044EA56E46AEC72E483E00E94E95086
S113454080913047909131478064809330479093B5
S1134550314747C58CE397E40E94F13F51C58C85F0
S11345609D85FC018381898F898D813321F0898D1B
S1134570823309F0C2C08091DA46823041F09091D2
S1134580364081E08927882311F081E001C080E072
S1134590882321F087EF8093D646BFC0898D81336D
S11345A009F064C08091DA46823021F0809136406F
S11345B0882311F081E001C080E0882309F452C00F
S11345C010921F4781E089ABCE01C19640E050E0D4
S11345D0BC0189EE96E40E94725180910C400E94C5
S11345E01E29809307409093084081E090E0A0E06A
S11345F0B0E08093174790931847A0931947B0935E
S11346001A478FEF9FEFDC0180931B4790931C4761
S1134610A0931D47B0931E478FE097E280930D400F
S113462090930E4010920F40109210408FE097E24A
S1134630A0E0B0E08093DD469093DE46A093DF4691
S1134640B093E0468FEF9FEF8093E1469093E2466C
S113465081E08093204781E080931F478DEF809312
S1134660D7465BC087EF8093D64657C0898D823387
S113467009F053C080913047909131478F3F9F405C
S113468021F08DEC8093D64648C08091554788230D
S113469051F080911F47882311F00E94DE2B8CE398
S11346A097E40E94F13F90911F4781E08927882376
S11346B0D1F01AAACE01C2960E9478298093D646D8
S11346C082E08093E44680911F47882331F065E0BF
S11346D082E397E40E94504B09C068E082E397E4C8
S11346E00E94504B03C08CE38093094010925547BD
S11346F0109230471092314710C0898D803309F0F1
S113470072C41092554710923047109231478CEE84
S11347108093D7461092474766C4000064C41C8245
S11347201D821E821F828C859D85FC0183818335B9
S113473009F041C08C859D85FC01808D882359F04A
S11347408C859D8548960E94D374DC01CB018C83B3
S11347509D83AE83BF838091174790911847A091A2
S11347601947B0911A4761E02C813D814E815F81E8
S1134770281739074A075B0709F460E0662389F0C4
S11347808C819D81AE81BF81809317479093184798
S1134790A0931947B0931A47809155478F5F809330
S11347A055478091304790913147986080933047C6
S11347B0909331471AC48C859D85FC01838186348E
S11347C009F013C48C859D85FC01808D882359F0E4
S11347D08C859D8548960E94D374DC01CB018C8323
S11347E09D83AE83BF8380911B4790911C47A0910A
S11347F01D47B0911E4761E02C813D814E815F8150
S1134800281739074A075B0709F460E0662389F033
S11348108C819D81AE81BF8180931B4790931C47FF
S1134820A0931D47B0931E47809155478F5F809397
S1134830554780913047909131478160809330474C
S113484090933147D2C381E080930A408C859D8543
S1134850FC0180818130D9F58C859D85FC018381A3
S1134860882359F08C859D85039644E150E0BC0172
S113487084EA96E40E943875C3C380E090E00E9405
S11348803706DC01CB012B2F2F932A2F2F93292FAF
S11348902F938F9385E690E4892F8F9385E690E498
S11348A08F9384EA96E4892F8F9384EA96E48F9316
S11348B00E9464758DB79EB70896CDBFDEBF44EAEB
S11348C056E469E670E483E00E94E95099C31A8EC5
S11348D01B8E1C8E1D8E8A8D9B8DAC8DBD8DBC0157
S11348E0CD010E94DD028CC38C859D85FC018081F5
S11348F0813009F05AC08C859D85FC018381882311
S1134900D9F18C859D850396BC018EEF96E40E94B7
S11349101F75892B09F43FC08C859D85039644E15E
S113492050E0BC018EEF96E40E94387580910B40F4
S1134930882F90E0BC018EEF96E40E94CA528C50FE
S11349409E4F9695879596958795969587959C0104
S1134950A5ECB0E20E945673929582958F708927D8
S11349609F708927809313479093144780915547EC
S11349708F5F809355470FC08091FE46882359F07E
S11349801092FE4610921347109214478091554797
S11349908F5F809355478091304790913147916064
S11349A0809330479093314722C38091FE468823F9
S11349B009F41DC38EEF96E4892F8F938EEF96E44E
S11349C08F938EEC92E4892F8F938EEC92E48F93E5
S11349D084EA96E4892F8F9384EA96E48F930E9465
S11349E064750F900F900F900F900F900F9084EAC2
S11349F096E40E948C501982FAC280910C408E8FEA
S1134A008C859D85FC018381893409F07AC08C856D
S1134A109D85FC01808D882309F4EBC28C859D85DE
S1134A2048960E94D374DC01CB018F8F98A3A9A36D
S1134A30BAA385E08BA384E18CA38CA1282F30E05A
S1134A4040E050E08F8D98A1A9A1BAA12817390799
S1134A504A075B0734F48CA1882F90E0A0E0B0E013
S1134A6010C08BA1882F90E0A0E0B0E02F8D38A17A
S1134A7049A15AA182179307A407B50714F4DA01D0
S1134A80C9018E8F90910B4081E02E8D291709F476
S1134A9080E0882361F18E8D80930B40809155478F
S1134AA08F5F809355478091FE46882301F1809162
S1134AB00B40882F90E0BC018EEF96E40E94CA520E
S1134AC08C509E4F96958795969587959695879544
S1134AD09C01A5ECB0E20E945673929582958F706A
S1134AE089279F7089278093134790931447809157
S1134AF0304790913147926080933047909331478B
S1134B0078C28C859D85FC018381803509F071C252
S1134B108C859D85FC01808D882309F46AC28C856F
S1134B209D8548960E94D374DC01CB018DA39EA37E
S1134B30AFA3B8A785E089A784E18AA78AA5282F0F
S1134B4030E040E050E08DA19EA1AFA1B8A52817A8
S1134B5039074A075B0734F48AA5882F90E0A0E060
S1134B60B0E010C089A5882F90E0A0E0B0E02DA1AE
S1134B703EA14FA158A582179307A407B50714F4C3
S1134B80DA01C9018E8F90910C4081E02E8D291796
S1134B9009F480E0882381F08E8D80930C4080910D
S1134BA055478F5F8093554780910C400E941E2982
S1134BB0809307409093084080913047909131470B
S1134BC09460809330479093314713C21BA61CA670
S1134BD08C859D85FC018381803391F58C859D8531
S1134BE0FC01808D882309F406C28C859D85489636
S1134BF00E94D374DC01CB018BA79CA780910F404A
S1134C009091104041E02BA53CA52817390709F4E1
S1134C1040E0442359F08BA59CA580930F409093CA
S1134C201040809155478F5F80935547809130475E
S1134C309091314784608093304790933147DBC132
S1134C408C859D85FC018381813391F58C859D85BF
S1134C50FC01808D882309F4CEC18C859D854896FE
S1134C600E94D374DC01CB018BA79CA780910D40DB
S1134C7090910E4041E02BA53CA52817390709F473
S1134C8040E0442359F08BA59CA580930D4090935C
S1134C900E40809155478F5F8093554780913047F0
S1134CA09091314788608093304790933147A3C1F6
S1134CB08C859D85FC018381893491F58C859D8546
S1134CC0FC01808D882309F496C18C859D854896C6
S1134CD00E94D374DC01CB018BA79CA78091114067
S1134CE09091124041E02BA53CA52817390709F4FF
S1134CF040E0442359F08BA59CA5809311409093E8
S1134D001240809155478F5F80935547809130477B
S1134D1090913147806280933047909331476BC1C3
S1134D208C859D85FC018381843409F064C18C8564
S1134D309D85FC01808D882309F45DC18C859D854A
S1134D4048960E94D374DC01CB018BA79CA7809169
S1134D5015479091164741E02BA53CA52817390724
S1134D6009F440E0442359F08BA59CA58093154792
S1134D7090931647809155478F5F80935547809154
S1134D803047909131478061809330479093314709
S1134D9032C18C859D85FC018381882309F42DC152
S1134DA08C859D850396BC0189EE96E40E941F754F
S1134DB0892B79F08C859D85039644E150E0BC01F4
S1134DC089EE96E40E943875809155478F5F8093F1
S1134DD055478091304790913147826080933047A6
S1134DE0909331470AC1188619861A861B868C85CA
S1134DF09D85FC0183818823E9F18C859D8503963B
S1134E000E94D374DC01CB018BAB9CABADABBEABCE
S1134E100E9492679B01AC018BA99CA9ADA9BEA974
S1134E2061E0281739074A075B0709F460E0662345
S1134E30B9F0CE01C39661E00E944067982F81E0EB
S1134E408927882369F08BA99CA9ADA9BEA9888765
S1134E509987AA87BB87809155478F5F8093554771
S1134E608091304790913147806880933047909388
S1134E70314708C00E949267DC01CB01888799877B
S1134E80AA87BB8788859985AA85BB85892B8A2BA8
S1134E908B2B09F4B4C08B858F938A858F93898576
S1134EA08F9388858F9387ED92E4892F8F9387ED75
S1134EB092E48F9384EA96E4892F8F9384EA96E4AC
S1134EC08F930E9464758DB79EB70896CDBFDEBFE1
S1134ED044EA56E46CED72E483E00E94E9508FC02A
S1134EE080912B4790912C47CC01A0E0B0E0BC010D
S1134EF0CD010E946F71DC01CB018DA79EA7AFA7E6
S1134F00B8AB20E030E04CE253E46DA57EA58FA55C
S1134F1098A90E946772DC01CB018DA79EA7AFA759
S1134F20B8AB2FE632E143E05AE36DA57EA58FA529
S1134F3098A90E946772DC01CB018DA79EA7AFA739
S1134F40B8AB20E030E040E85FE36DA57EA58FA517
S1134F5098A90E943F70DC01CB018DA79EA7AFA743
S1134F60B8AB8DA59EA5AFA5B8A904EA16E420E0C8
S1134F7044E0BC01CD010E9470731092A94660EE1A
S1134F8072E484EA96E40E9438513AC00E94F536ED
S1134F90DC01CB0104EA16E421E044E0BC01CD01CC
S1134FA00E9470731092A94665EE72E484EA96E456
S1134FB00E94385125C04AEE52E46EEE72E483E05A
S1134FC00E94E9501DC0198282EF92E40E948C5025
S1134FD017C0000015C0000013C0000011C000007D
S1134FE00FC000000DC000000BC0000009C000008D
S1134FF007C0000005C0000003C0000001C000009D
S11350008981882321F088EF92E40E948C508C855A
S11350109D85FC011182128258C80000E696CDBF1E
S1135020DEBFDF91CF911F910F910895CF93DF934E
S11350301F92CDB7DEB70E94D62B8983998181E078
S11350408927882391F09091DA4681E0913009F420
S113505080E0882331F081E08093DA4681E0809318
S1135060064083E080931A4027C09091DA4681E09D
S1135070923009F480E08823F9F0809156479981B1
S11350809817B9F480911A408823B1F080911A409E
S1135090815080931A4080911A40882369F482E0F9
S11350A08093DA4681E08093064083E080931A403F
S11350B003C083E080931A4089818093564700009F
S11350C00F90DF91CF910895CF93DF93CDB7DEB7E3
S11350D02897CDBFDEBF20911747309118474091E4
S11350E0194750911A4780911B4790911C47A091F2
S11350F01D47B0911E47BC01CD010E948D6CDC019F
S1135100CB0189839A83AB83BC8380E090E00E94C7
S11351103706DC01CB018D839E83AF83B887209152
S11351201B4730911C4740911D4750911E478D816C
S11351309E81AF81B885BC01CD010E948D6CDC01DC
S1135140CB0189839A83AB83BC83109223478981E3
S11351509A81AB81BC81BB239CF083E08093134094
S11351608FEF9FEFDC018093254790932647A09310
S11351702747B093284782E08093E44680E04DC0FF
S113518020911747309118474091194750911A4779
S11351908D819E81AF81B885BC01CD010E948D6C4B
S11351A0DC01CB0189839A83AB83BC8389819A8197
S11351B0AB81BC81823E9F4FAF4FBF4FBCF010927A
S11351C013408091174790911847A0911947B091C7
S11351D01A470597A109B10980932547909326475B
S11351E0A0932747B093284781E017C080911747C1
S11351F090911847A0911947B0911A470597A109B2
S1135200B1098093254790932647A0932747B093ED
S1135210284781E08093134081E02896CDBFDEBF0C
S1135220DF91CF910895CF93DF931F92CDB7DEB76F
S1135230898300000F90DF91CF910895CF93DF937E
S1135240CDB7DEB72A97CDBFDEBF8A878A8589832B
S113525085E090E08A839B8384E190E08C839D8346
S11352608981282F880F330B8C819D8182179307A6
S11352705CF08981082E000C990B2A813B818217EE
S1135280930724F4C90102C08C819D818A878A8591
S1135290282F30E040E050E088ED9DE0A0E0B0E051
S11352A0BC01CD010E942E73DA01C9012AE030E06D
S11352B040E050E0BC01CD010E942E73DA01C90127
S11352C0BC01CD010E947171DC01CB018E839F83EF
S11352D0A887B9876E817F81888599850E944071EE
S11352E0DC01CB012A96CDBFDEBFDF91CF910895BB
S11352F0CF93DF9300D01F92CDB7DEB78A839B8311
S11353008A819B810E94A32989838A819B81FC01D4
S11353108081882331F08A819B81FC018081809384
S1135320D7468981882321F089818093D64604C099
S11353300E94642880931F4789812396CDBFDEBFD6
S1135340DF91CF910895CF93DF93CDB7DEB7639705
S1135350CDBFDEBF8A8B9B8B8091174790911847F6
S1135360A0911947B0911A4721E0892B8A2B8B2BE6
S113537009F020E0222311F08CEC12C2209117478F
S1135380309118474091194750911A4780911B4713
S113539090911C47A0911D47B0911E4761E02817CA
S11353A039074A075B0708F460E0662311F08DECC7
S11353B0F7C180910D4090910E4021E0892B09F0B6
S11353C020E0222311F08BECEBC120910F403091AF
S11353D0104080910D4090910E40280F391F80910C
S11353E015479091164741E0281739070CF040E023
S11353F0442311F08AECD4C18091E946882311F446
S113540089ECCEC190910C4081E0992309F080E0B1
S1135410882311F088ECC4C18091FE46882391F161
S113542080910B40882331F080911140909112407B
S1135430892B11F481E001C080E0882311F087EC0E
S1135440AFC180910B40882F90E0BC018EEF96E4B1
S11354500E94CA528C509E4F969587959695879533
S1135460969587959C01A5ECB0E20E94567392959F
S113547082958F7089279F70892780931347909313
S1135480144704C0109213471092144780E090E030
S11354900E943706DC01CB018A839B83AC83BD83E6
S11354A020911B4730911C4740911D4750911E4746
S11354B061E08A819B81AC81BD81281739074A0745
S11354C05B0708F060E0662359F08A899B89892B81
S11354D009F465C18A899B892AEFFC0120835FC195
S11354E020911747309118474091194750911A4716
S11354F08A819B81AC81BD81BC01CD010E948D6CF0
S1135500DC01CB018E839F83A887B9878E819F811D
S1135510A885B985BB230CF434C1198220910D40B0
S113552030910E4080910F4090911040820F931F54
S11355308A879B878A859B859C01990F440B550B11
S11355408E819F81A885B985BC01CD010E942E73EF
S1135550DC01CB018C879D8720911547309116473C
S11355608C859D85A901481B590BCA018E879F878D
S11355708E859F85181619060CF4A8C08E859F8504
S113558022273327281B390B80910D4090910E4020
S113559041E0281739070CF440E0442309F441C0E2
S11355A02A853B858E859F85820F931F91958195D2
S11355B09109092E000CAA0BBB0B8093DD46909336
S11355C0DE46A093DF46B093E0468A899B89892B07
S11355D029F08A899B892EEFFC01208390911F4733
S11355E081E08927882309F4A6C080910D40909119
S11355F00E409C018091DD469091DE46A091DF46ED
S1135600B091E046281B390B8091134790911447C1
S1135610A901481B590BCA018093E1469093E246C5
S11356208AC020910D4030910E408E859F85820F57
S1135630931F092E000CAA0BBB0B8093DD4690939D
S1135640DE46A093DF46B093E04681E089838A89F1
S11356509B89892B29F08A899B892DEFFC01208362
S113566090911F4781E08927882309F464C08091C1
S11356701347909114479C0140E050E08091DD462F
S11356809091DE46A091DF46B091E04661E0281794
S113569039074A075B070CF060E0662309F44BC046
S11356A08091DD469091DE46A091DF46B091E046C0
S11356B09C018091134790911447A901481B590BF1
S11356C0CA018093E1469093E24635C08E859F855A
S11356D0919581959109092E000CAA0BBB0B80931F
S11356E0DD469093DE46A093DF46B093E0468A8978
S11356F09B89892B29F08A899B892EEFFC012083C1
S113570090911F4781E089278823A9F020910D40BB
S113571030910E408E859F85820F931F9C0180914E
S1135720134790911447A901481B590BCA01809350
S1135730E1469093E24689818823E1F080911F47F6
S1135740888B10921F4781E0898BCE01419640E0FF
S113575050E0BC0189EE96E40E94725180910C40A5
S11357600E941E2980930740909308408889809363
S11357701F4703C080E00E943E6881E08093204779
S11357800CC08A899B89892B29F08A899B892FEFF0
S1135790FC01208380E00E943E681092224780E052
S11357A06396CDBFDEBFDF91CF910895CF93DF9392
S11357B0CDB7DEB781E0DF91CF910895CF93DF932A
S11357C01F92CDB7DEB710921F471092DD4610929C
S11357D0DE461092DF461092E0461092204780E0A9
S11357E00E943E6880E00E94A367198240E050E076
S11357F0CE010196BC0187E590E40E94725161E0FC
S113580082E397E40E94504B68E082E397E40E94AD
S1135810504B00000F90DF91CF910895CF93DF9309
S113582000D0CDB7DEB78A830E94C13289838A81D2
S1135830882379F48981823031F460E080E090E05B
S11358400E94272D47C063E080E090E00E94272D4E
S113585041C08A818230F1F48981823031F461E07F
S113586080E090E00E94272D35C08981813031F09D
S11358708981843019F08981833031F461E080E0DA
S113588090E00E94272D26C063E080E090E00E9413
S1135890272D20C08981823031F461E080E090E0DE
S11358A00E94272D17C08981813031F462E080E0A5
S11358B090E00E94272D0EC08981843031F463E08A
S11358C080E090E00E94272D05C063E080E090E036
S11358D00E94272D00000F900F90DF91CF91089523
S11358E0CF93DF9300D0CDB7DEB78A830E94C13255
S11358F089838A81823031F460E080E090E00E9404
S1135900272D16C08981813029F462E080E090E07F
S11359100E94272D8981843031F460E080E090E09A
S11359200E94272D05C060E080E090E00E94272DB2
S113593000000F900F90DF91CF910895EF92FF92A6
S11359400F931F93CF93DF93CDB7DEB72597CDBFCA
S1135950DEBF80E090E00E943706DC01CB01898342
S11359609A83AB83BC830E94C1328D838D81823044
S113597009F460C063E080E090E00E94272D20914C
S11359801747309118474091194750911A47898118
S11359909A81AB81BC810F2EF1E4EF2EF1E4FF2E4E
S11359A0F02D0EE411E4BC01CD010E941F312091C1
S11359B01747309118474091194750911A4761E0B1
S11359C089819A81AB81BC81281739074A075B0713
S11359D008F060E06623A9F020911B4730911C4732
S11359E040911D4750911E4789819A81AB81BC81AA
S11359F0E12CF12C02E611E4BC01CD010E941F311F
S1135A001BC020911B4730911C4740911D4750916A
S1135A101E478091174790911847A0911947B0915C
S1135A201A47E12CF12C0AE511E4BC01CD010E94D6
S1135A301F3102C00E945B3300002596CDBFDEBF3C
S1135A40DF91CF911F910F91FF90EF900895CF9325
S1135A50DF93CDB7DEB76097CDBFDEBF8E879F875C
S1135A60688B81E089838E859F85892B61F08E8583
S1135A709F85FC018081823131F08E859F85FC01F8
S1135A8080818093174010921F471092204760E056
S1135A9082E397E40E94F64A80911740882F90E0B1
S1135AA0092E000CAA0BBB0B41E050E020E130E0D2
S1135AB0841B950B2817390708F4A1C18E5A9F4FF0
S1135AC0FC010C944D738981882389F08DE49FE453
S1135AD08093E9469093EA4685E490E08093EB4610
S1135AE09093EC46198210921547109216478981BB
S1135AF0882399F08DE49FE48093E9469093EA46E5
S1135B0089E490E08093EB469093EC4619828CE311
S1135B1090E080931547909316478981882399F0E4
S1135B208DE49FE48093E9469093EA4683E590E010
S1135B308093EB469093EC46198288E790E080933B
S1135B401547909316478981882399F08DE49FE443
S1135B508093E9469093EA4688E490E08093EB468C
S1135B609093EC46198284EB90E0809315479093D0
S1135B7016478981882391F08DE49FE48093E94658
S1135B809093EA4685E390E08093EB469093EC464D
S1135B9080EF90E0809315479093164781E08F83C0
S1135BA0CE01079640E050E0BC0189EE96E40E94E5
S1135BB0725180910C400E941E298093074090935B
S1135BC008408CE390E08093E1469093E2468CE3B6
S1135BD090E080930D4090930E4080EF90E080938E
S1135BE00F409093104041C18981882369F08DE46E
S1135BF095E48093E9469093EA461092EB46198225
S1135C0010921547109216478981882379F08DE404
S1135C1099E48093E9469093EA461092EB46198200
S1135C208CE090E0809315479093164789818823F0
S1135C3079F08DE493E58093E9469093EA461092D7
S1135C40EB46198288E190E08093154790931647BC
S1135C508981882379F08DE498E48093E9469093D0
S1135C60EA461092EB46198284E290E0809315474D
S1135C70909316478981882371F08DE495E380938E
S1135C80E9469093EA461092EB4680E390E08093D5
S1135C9015479093164781E08887CE01089640E027
S1135CA050E0BC0189EE96E40E94725188E0809332
S1135CB00C4080910C400E941E29809307409093D1
S1135CC0084088E592E08093E1469093E2468CE0B8
S1135CD090E080930D4090930E4080E390E0809399
S1135CE00F4090931040C1C08981882369F08FE4EC
